:020000040800F2
:100000000040002071050008C1050008C105000876
:1000100000000000000000000000000000000000E0
:10002000000000000000000000000000C105000802
:100030000000000000000000C1050008B504000831
:10004000C1050008C1050008C1050008C105000878
:10005000C1050008C1050008C1050008C105000868
:10006000C1050008C1050008C1050008C105000858
:10007000C1050008C1050008C1050008C105000848
:10008000C1050008C1050008C1050008C105000838
:10009000C1050008C1050008C1050008C105000828
:1000A000C1050008C1050008C1050008C105000818
:1000B000C1050008C1050008C1050008C105000808
:1000C000002243088B4274D303098B425FD3030A97
:1000D0008B4244D3030B8B4228D3030C8B420DD3AA
:1000E000FF22090212BA030C8B4202D31212090238
:1000F00065D0030B8B4219D300E0090AC30B8B4276
:1001000001D3CB03C01A5241830B8B4201D38B0323
:10011000C01A5241430B8B4201D34B03C01A5241C8
:10012000030B8B4201D30B03C01A5241C30A8B420B
:1001300001D3CB02C01A5241830A8B4201D38B02F6
:10014000C01A5241430A8B4201D34B02C01A52419A
:10015000030A8B4201D30B02C01A5241CDD2C3090C
:100160008B4201D3CB01C01A524183098B4201D388
:100170008B01C01A524143098B4201D34B01C01A73
:10018000524103098B4201D30B01C01A5241C308EB
:100190008B4201D3CB00C01A524183088B4201D35A
:1001A0008B00C01A524143088B4201D34B00C01A46
:1001B0005241411A00D20146524110467047FFE7B2
:1001C00001B5002000F006F802BDC0460029F7D0B6
:1001D00076E770477047C04670B50D4B0D4D5E1BFE
:1001E000B610AB4205D0002408CD01349847A64292
:1001F000FAD800F063F9084B084D5E1BB610AB420D
:1002000005D0002408CD01349847A642FAD870BD25
:10021000D4050008D4050008D4050008D40500085A
:10022000782802D9783880B270470020FCE7E123B3
:10023000DB0098420BD2FA239B00984209D2F53B8F
:10024000FF3B984207D2C72807D8002070470420F8
:10025000FCE70320FAE70220F8E70120F6E70000B8
:1002600070B500F097F800F0C3F80024802000F08B
:1002700009F90500FFF7D4FFE3001B1B1B18DB087F
:100280009CB2094B1D80094B1880094B1C80200033
:10029000FFF7CDFF074B18701878C0B200F05AF87E
:1002A000192000F04BF8E1E70A00002008000020C8
:1002B0000600002004000020013880235B049842DF
:1002C0000FD2094A50600948036A1B021B0AC02169
:1002D00009060B4303620023936007331360002079
:1002E00070470120FCE7C04610E000E000ED00E0B0
:1002F0000E4A516980231B030B4353610C4B1A6850
:100300000C490A401A601868AA22D20202431A60F5
:100310005A68094802405A609A680A409A60DA6846
:100320000A40DA60F02292009A62704700100240A0
:1003300000080048FF0FF0FF3FFCFFFF044B1A6866
:1003400000E030BF024B1B689B1A8342F9D3704711
:100350000C000020002804D001280ED9A022520051
:1003600000E00022022809D980239B001A430328B9
:1003700004D9813BFF3B1A4300E04022D3431B04D6
:10038000F02189040B401343014A93617047C04632
:100390000008004810B500F095F8074B1868FA21DE
:1003A0008900FFF78DFEFFF787FFFFF7A1FF002011
:1003B000FFF7D0FF10BDC04600000020024A1368BE
:1003C000013313607047C0460C000020074B1E220B
:1003D0001A609A6804210A439A60044B1B685B0701
:1003E000FBD5024B186C0005000D7047002401403E
:1003F00010B5214B5969802292020A435A619969CA
:10040000802292000A439A619023DB051A681B49F7
:100410000A401A601868C022920002431A60DA6823
:100420000A40DA60164B9B68DB0708D5144A9368CC
:1004300002210B439360124B9B68DB07FBD4104BEC
:100440000022DA6010329A62093A5A619968802271
:1004500012060A439A600A4B9B68002BFBDB084B91
:10046000012119609A680A439A60054B1B68DB07F3
:10047000FBD5FFF7ABFF10BD00100240FFFCFFFFF4
:1004800000240140F8B5070000240025084E00E0D4
:100490000134BC4209D2FFF799FF0300864200D91C
:1004A00006009D42F4D20500F2E7A81B80B2F8BD19
:1004B000FF0F000010B5FFF781FF10BD70477047B8
:1004C0007047000010B5254B5A680C231340042BCD
:1004D00012D0082B14D0002B3CD1214B214A1A609A
:1004E0001E4B5A6812090F2313401F4AD15C1C4A45
:1004F0001368CB40136010BD194B1A4A1A60EFE71E
:10050000164A50685368C02149020B40800C0F21E5
:100510000840841CD26A1140013180225202934269
:100520000AD0C022520293420DD00E48FFF7C8FDF8
:1005300060430B4B1860D3E70A48FFF7C1FD6043E7
:10054000074B1860CCE70948FFF7BAFD6043044B3E
:100550001860C5E7024B034A1A60C1E70010024069
:100560000000002000127A00C4050008006CDC02C4
:100570000D488546FFF7A4FF0C480D490D4A00239E
:1005800002E0D458C4500433C4188C42F9D30A4A48
:100590000A4C002301E013600432A242FBD3FFF7B0
:1005A0001BFEFFF75DFEFEE700400020000000207C
:1005B00004000020D40500080400002010000020E2
:0405C000FEE7000052
:1005C40000000000000000000102030406070809FF
:0405D40000127A0097
:040000050800057179
:00000001FF
